{
  "abi": [
    {
      "inputs": [],
      "name": "ChainlinkPriceOracle2_InconsistentLength",
      "type": "error"
    },
    {
      "inputs": [],
      "name": "ChainlinkPriceOracle2_InvalidPrice",
      "type": "error"
    },
    {
      "inputs": [],
      "name": "ChainlinkPriceOracle2_NoSource",
      "type": "error"
    },
    {
      "inputs": [],
      "name": "ChainlinkPriceOracle2_SourceExistedPair",
      "type": "error"
    },
    {
      "inputs": [],
      "name": "ChainlinkPriceOracle2_SourceOverLimit",
      "type": "error"
    },
    {
      "anonymous": false,
      "inputs": [
        {
          "indexed": false,
          "internalType": "uint8",
          "name": "version",
          "type": "uint8"
        }
      ],
      "name": "Initialized",
      "type": "event"
    },
    {
      "anonymous": false,
      "inputs": [
        {
          "indexed": true,
          "internalType": "address",
          "name": "previousOwner",
          "type": "address"
        },
        {
          "indexed": true,
          "internalType": "address",
          "name": "newOwner",
          "type": "address"
        }
      ],
      "name": "OwnershipTransferred",
      "type": "event"
    },
    {
      "anonymous": false,
      "inputs": [
        {
          "indexed": true,
          "internalType": "address",
          "name": "token0",
          "type": "address"
        },
        {
          "indexed": true,
          "internalType": "address",
          "name": "token1",
          "type": "address"
        },
        {
          "indexed": false,
          "internalType": "contract AggregatorV3Interface[]",
          "name": "sources",
          "type": "address[]"
        }
      ],
      "name": "SetPriceFeed",
      "type": "event"
    },
    {
      "inputs": [
        {
          "internalType": "address",
          "name": "token0",
          "type": "address"
        },
        {
          "internalType": "address",
          "name": "token1",
          "type": "address"
        }
      ],
      "name": "getPrice",
      "outputs": [
        {
          "internalType": "uint256",
          "name": "",
          "type": "uint256"
        },
        {
          "internalType": "uint256",
          "name": "",
          "type": "uint256"
        }
      ],
      "stateMutability": "view",
      "type": "function"
    },
    {
      "inputs": [],
      "name": "initialize",
      "outputs": [],
      "stateMutability": "nonpayable",
      "type": "function"
    },
    {
      "inputs": [],
      "name": "owner",
      "outputs": [
        {
          "internalType": "address",
          "name": "",
          "type": "address"
        }
      ],
      "stateMutability": "view",
      "type": "function"
    },
    {
      "inputs": [
        {
          "internalType": "address",
          "name": "",
          "type": "address"
        },
        {
          "internalType": "address",
          "name": "",
          "type": "address"
        }
      ],
      "name": "priceFeedCount",
      "outputs": [
        {
          "internalType": "uint256",
          "name": "",
          "type": "uint256"
        }
      ],
      "stateMutability": "view",
      "type": "function"
    },
    {
      "inputs": [
        {
          "internalType": "address",
          "name": "",
          "type": "address"
        },
        {
          "internalType": "address",
          "name": "",
          "type": "address"
        },
        {
          "internalType": "uint256",
          "name": "",
          "type": "uint256"
        }
      ],
      "name": "priceFeeds",
      "outputs": [
        {
          "internalType": "contract AggregatorV3Interface",
          "name": "",
          "type": "address"
        }
      ],
      "stateMutability": "view",
      "type": "function"
    },
    {
      "inputs": [],
      "name": "renounceOwnership",
      "outputs": [],
      "stateMutability": "nonpayable",
      "type": "function"
    },
    {
      "inputs": [
        {
          "internalType": "address[]",
          "name": "token0s",
          "type": "address[]"
        },
        {
          "internalType": "address[]",
          "name": "token1s",
          "type": "address[]"
        },
        {
          "internalType": "contract AggregatorV3Interface[][]",
          "name": "allSources",
          "type": "address[][]"
        }
      ],
      "name": "setPriceFeeds",
      "outputs": [],
      "stateMutability": "nonpayable",
      "type": "function"
    },
    {
      "inputs": [
        {
          "internalType": "address",
          "name": "newOwner",
          "type": "address"
        }
      ],
      "name": "transferOwnership",
      "outputs": [],
      "stateMutability": "nonpayable",
      "type": "function"
    }
  ],
  "bytecode": {
    "object": "0x608060405234801561001057600080fd5b50611349806100206000396000f3fe608060405234801561001057600080fd5b50600436106100885760003560e01c80638da5cb5b1161005b5780638da5cb5b14610109578063ac41865a1461011a578063f2fde38b14610142578063fe23ce531461015557600080fd5b80636fee810c1461008d578063715018a6146100a2578063790a33fc146100aa5780638129fc1c14610101575b600080fd5b6100a061009b366004610ee3565b61018e565b005b6100a0610295565b6100e46100b8366004610f99565b60656020908152600093845260408085208252928452828420905282529020546001600160a01b031681565b6040516001600160a01b0390911681526020015b60405180910390f35b6100a06102a9565b6033546001600160a01b03166100e4565b61012d610128366004610fd5565b6103bf565b604080519283526020830191909152016100f8565b6100a0610150366004611008565b610bc0565b610180610163366004610fd5565b606660209081526000928352604080842090915290825290205481565b6040519081526020016100f8565b610196610c36565b84831415806101a55750848114155b156101c357604051632b05b2d760e11b815260040160405180910390fd5b60005b8581101561028c5761027a8787838181106101e3576101e361102a565b90506020020160208101906101f89190611008565b86868481811061020a5761020a61102a565b905060200201602081019061021f9190611008565b8585858181106102315761023161102a565b90506020028101906102439190611040565b80806020026020016040519081016040528093929190818152602001838360200280828437600092019190915250610c9092505050565b80610284816110a0565b9150506101c6565b50505050505050565b61029d610c36565b6102a76000610df2565b565b600054610100900460ff16158080156102c95750600054600160ff909116105b806102e35750303b1580156102e3575060005460ff166001145b61034b5760405162461bcd60e51b815260206004820152602e60248201527f496e697469616c697a61626c653a20636f6e747261637420697320616c72656160448201526d191e481a5b9a5d1a585b1a5e995960921b60648201526084015b60405180910390fd5b6000805460ff19166001179055801561036e576000805461ff0019166101001790555b610376610e44565b80156103bc576000805461ff0019169055604051600181527f7f26b83ff96e1f2b6a682f133852f6798a09c465da95921460cefb38474024989060200160405180910390a15b50565b6001600160a01b038083166000908152606660209081526040808320938516835292905290812054819015801561041957506001600160a01b03808416600090815260666020908152604080832093881683529290522054155b156104375760405163faab535d60e01b815260040160405180910390fd5b6001600160a01b03808516600090815260666020908152604080832093871683529290529081205481908190819081908190819015610829576001600160a01b03808c1660009081526065602090815260408083208e85168452825280832083805290915290819020548151633fabe5a360e21b8152915192169163feaf968c9160048082019260a0929091908290030181865afa1580156104dd573d6000803e3d6000fd5b505050506040513d601f19601f8201168201806040525081019061050191906110d5565b9091929350909150508097508198505050606560008c6001600160a01b03166001600160a01b0316815260200190815260200160002060008b6001600160a01b03166001600160a01b03168152602001908152602001600020600080815260200190815260200160002060009054906101000a90046001600160a01b03166001600160a01b031663313ce5676040518163ffffffff1660e01b8152600401602060405180830381865afa1580156105bc573d6000803e3d6000fd5b505050506040513d601f19601f820116820180604052508101906105e09190611125565b60ff1692506105f083600a61122e565b61060288670de0b6b3a764000061123a565b61060c9190611259565b6001600160a01b03808d166000908152606660209081526040808320938f168352929052205490925060021415610819576001600160a01b03808c1660009081526065602090815260408083208e8516845282528083206001845290915290819020548151633fabe5a360e21b8152915192169163feaf968c9160048082019260a0929091908290030181865afa1580156106ab573d6000803e3d6000fd5b505050506040513d601f19601f820116820180604052508101906106cf91906110d5565b9091929350909150508095508196505050606560008c6001600160a01b03166001600160a01b0316815260200190815260200160002060008b6001600160a01b03166001600160a01b0316815260200190815260200160002060006001815260200190815260200160002060009054906101000a90046001600160a01b03166001600160a01b031663313ce5676040518163ffffffff1660e01b8152600401602060405180830381865afa15801561078b573d6000803e3d6000fd5b505050506040513d601f19601f820116820180604052508101906107af9190611125565b60ff1692506107bf83600a61122e565b6107d186670de0b6b3a764000061123a565b6107db9190611259565b9050806107f083670de0b6b3a764000061123a565b6107fa9190611259565b8685106108075786610809565b845b9850985050505050505050610bb9565b509650929450610bb99350505050565b6001600160a01b03808b1660009081526065602090815260408083208f85168452825280832083805290915290819020548151633fabe5a360e21b8152915192169163feaf968c9160048082019260a0929091908290030181865afa158015610896573d6000803e3d6000fd5b505050506040513d601f19601f820116820180604052508101906108ba91906110d5565b9091929350909150508097508198505050606560008b6001600160a01b03166001600160a01b0316815260200190815260200160002060008c6001600160a01b03166001600160a01b03168152602001908152602001600020600080815260200190815260200160002060009054906101000a90046001600160a01b03166001600160a01b031663313ce5676040518163ffffffff1660e01b8152600401602060405180830381865afa158015610975573d6000803e3d6000fd5b505050506040513d601f19601f820116820180604052508101906109999190611125565b60ff169250866109aa84600a61122e565b6109bc90670de0b6b3a764000061123a565b6109c69190611259565b9150606660008b6001600160a01b03166001600160a01b0316815260200190815260200160002060008c6001600160a01b03166001600160a01b031681526020019081526020016000205460021415610bae576001600160a01b03808b1660009081526065602090815260408083208f8516845282528083206001845290915290819020548151633fabe5a360e21b8152915192169163feaf968c9160048082019260a0929091908290030181865afa158015610a87573d6000803e3d6000fd5b505050506040513d601f19601f82011682018060405250810190610aab91906110d5565b9091929350909150508095508196505050606560008b6001600160a01b03166001600160a01b0316815260200190815260200160002060008c6001600160a01b03166001600160a01b0316815260200190815260200160002060006001815260200190815260200160002060009054906101000a90046001600160a01b03166001600160a01b031663313ce5676040518163ffffffff1660e01b8152600401602060405180830381865afa158015610b67573d6000803e3d6000fd5b505050506040513d601f19601f82011682018060405250810190610b8b9190611125565b60ff16925084610b9c84600a61122e565b6107d190670de0b6b3a764000061123a565b509650929450505050505b9250929050565b610bc8610c36565b6001600160a01b038116610c2d5760405162461bcd60e51b815260206004820152602660248201527f4f776e61626c653a206e6577206f776e657220697320746865207a65726f206160448201526564647265737360d01b6064820152608401610342565b6103bc81610df2565b6033546001600160a01b031633146102a75760405162461bcd60e51b815260206004820181905260248201527f4f776e61626c653a2063616c6c6572206973206e6f7420746865206f776e65726044820152606401610342565b6001600160a01b0380831660009081526066602090815260408083209387168352929052205415610cd457604051631880fe7960e31b815260040160405180910390fd5b600281511115610cf7576040516342f612cf60e11b815260040160405180910390fd5b80516001600160a01b0380851660009081526066602090815260408083209387168352929052908120919091555b8151811015610da157818181518110610d4057610d4061102a565b6020908102919091018101516001600160a01b038681166000908152606584526040808220888416835285528082208683529094529290922080546001600160a01b0319169290911691909117905580610d99816110a0565b915050610d25565b50816001600160a01b0316836001600160a01b03167f6152108a07e7f45c64d65b611b5e1dfa7475f6d50a37630badf018bfeaea93aa83604051610de5919061127b565b60405180910390a3505050565b603380546001600160a01b038381166001600160a01b0319831681179093556040519116919082907f8be0079c531659141344cd1fd0a4f28419497f9722a3daafe3b4186f6b6457e090600090a35050565b600054610100900460ff16610e6b5760405162461bcd60e51b8152600401610342906112c8565b6102a7600054610100900460ff16610e955760405162461bcd60e51b8152600401610342906112c8565b6102a733610df2565b60008083601f840112610eb057600080fd5b50813567ffffffffffffffff811115610ec857600080fd5b6020830191508360208260051b8501011115610bb957600080fd5b60008060008060008060608789031215610efc57600080fd5b863567ffffffffffffffff80821115610f1457600080fd5b610f208a838b01610e9e565b90985096506020890135915080821115610f3957600080fd5b610f458a838b01610e9e565b90965094506040890135915080821115610f5e57600080fd5b50610f6b89828a01610e9e565b979a9699509497509295939492505050565b80356001600160a01b0381168114610f9457600080fd5b919050565b600080600060608486031215610fae57600080fd5b610fb784610f7d565b9250610fc560208501610f7d565b9150604084013590509250925092565b60008060408385031215610fe857600080fd5b610ff183610f7d565b9150610fff60208401610f7d565b90509250929050565b60006020828403121561101a57600080fd5b61102382610f7d565b9392505050565b634e487b7160e01b600052603260045260246000fd5b6000808335601e1984360301811261105757600080fd5b83018035915067ffffffffffffffff82111561107257600080fd5b6020019150600581901b3603821315610bb957600080fd5b634e487b7160e01b600052601160045260246000fd5b60006000198214156110b4576110b461108a565b5060010190565b805169ffffffffffffffffffff81168114610f9457600080fd5b600080600080600060a086880312156110ed57600080fd5b6110f6866110bb565b9450602086015193506040860151925060608601519150611119608087016110bb565b90509295509295909350565b60006020828403121561113757600080fd5b815160ff8116811461102357600080fd5b600181815b808511156111835781600019048211156111695761116961108a565b8085161561117657918102915b93841c939080029061114d565b509250929050565b60008261119a57506001611228565b816111a757506000611228565b81600181146111bd57600281146111c7576111e3565b6001915050611228565b60ff8411156111d8576111d861108a565b50506001821b611228565b5060208310610133831016604e8410600b8410161715611206575081810a611228565b6112108383611148565b80600019048211156112245761122461108a565b0290505b92915050565b6000611023838361118b565b60008160001904831182151516156112545761125461108a565b500290565b60008261127657634e487b7160e01b600052601260045260246000fd5b500490565b6020808252825182820181905260009190848201906040850190845b818110156112bc5783516001600160a01b031683529284019291840191600101611297565b50909695505050505050565b6020808252602b908201527f496e697469616c697a61626c653a20636f6e7472616374206973206e6f74206960408201526a6e697469616c697a696e6760a81b60608201526080019056fea2646970667358221220aae21df20f8f61cdda9b8e01c79f4f7fc30c3f9a66d18f57915120429c87c37664736f6c634300080b0033",
    "linkReferences": {}
  },
  "methodIdentifiers": {
    "getPrice(address,address)": "ac41865a",
    "initialize()": "8129fc1c",
    "owner()": "8da5cb5b",
    "priceFeedCount(address,address)": "fe23ce53",
    "priceFeeds(address,address,uint256)": "790a33fc",
    "renounceOwnership()": "715018a6",
    "setPriceFeeds(address[],address[],address[][])": "6fee810c",
    "transferOwnership(address)": "f2fde38b"
  },
  "id": 27
}