{
  "abi": [
    {
      "inputs": [
        {
          "internalType": "address",
          "name": "_wnative",
          "type": "address"
        }
      ],
      "stateMutability": "nonpayable",
      "type": "constructor"
    },
    {
      "anonymous": false,
      "inputs": [
        {
          "indexed": true,
          "internalType": "address",
          "name": "previousOwner",
          "type": "address"
        },
        {
          "indexed": true,
          "internalType": "address",
          "name": "newOwner",
          "type": "address"
        }
      ],
      "name": "OwnershipTransferred",
      "type": "event"
    },
    {
      "inputs": [],
      "name": "owner",
      "outputs": [
        {
          "internalType": "address",
          "name": "",
          "type": "address"
        }
      ],
      "stateMutability": "view",
      "type": "function"
    },
    {
      "inputs": [],
      "name": "renounceOwnership",
      "outputs": [],
      "stateMutability": "nonpayable",
      "type": "function"
    },
    {
      "inputs": [
        {
          "internalType": "address[]",
          "name": "whitelistedCallers",
          "type": "address[]"
        },
        {
          "internalType": "bool",
          "name": "isOk",
          "type": "bool"
        }
      ],
      "name": "setCallerOk",
      "outputs": [],
      "stateMutability": "nonpayable",
      "type": "function"
    },
    {
      "inputs": [
        {
          "internalType": "address",
          "name": "newOwner",
          "type": "address"
        }
      ],
      "name": "transferOwnership",
      "outputs": [],
      "stateMutability": "nonpayable",
      "type": "function"
    },
    {
      "inputs": [
        {
          "internalType": "uint256",
          "name": "_amount",
          "type": "uint256"
        }
      ],
      "name": "withdraw",
      "outputs": [],
      "stateMutability": "nonpayable",
      "type": "function"
    },
    {
      "stateMutability": "payable",
      "type": "receive"
    }
  ],
  "bytecode": {
    "object": "0x608060405234801561001057600080fd5b506040516107693803806107698339818101604052602081101561003357600080fd5b505160006100486001600160e01b036100bb16565b600080546001600160a01b0319166001600160a01b0383169081178255604051929350917f8be0079c531659141344cd1fd0a4f28419497f9722a3daafe3b4186f6b6457e0908290a35060018055600280546001600160a01b0319166001600160a01b03929092169190911790556100bf565b3390565b61069b806100ce6000396000f3fe60806040526004361061004e5760003560e01c80632763eaf51461005a5780632e1a7d4d146100db578063715018a6146101055780638da5cb5b1461011a578063f2fde38b1461014b57610055565b3661005557005b600080fd5b34801561006657600080fd5b506100d96004803603604081101561007d57600080fd5b81019060208101813564010000000081111561009857600080fd5b8201836020820111156100aa57600080fd5b803590602001918460208302840111640100000000831117156100cc57600080fd5b919350915035151561017e565b005b3480156100e757600080fd5b506100d9600480360360208110156100fe57600080fd5b503561024f565b34801561011157600080fd5b506100d96103f3565b34801561012657600080fd5b5061012f6104b1565b604080516001600160a01b039092168252519081900360200190f35b34801561015757600080fd5b506100d96004803603602081101561016e57600080fd5b50356001600160a01b03166104c0565b6101866105d4565b6001600160a01b03166101976104b1565b6001600160a01b0316146101f2576040805162461bcd60e51b815260206004820181905260248201527f4f776e61626c653a2063616c6c6572206973206e6f7420746865206f776e6572604482015290519081900360640190fd5b8160005b8181101561024857826003600087878581811061020f57fe5b602090810292909201356001600160a01b0316835250810191909152604001600020805460ff19169115159190911790556001016101f6565b5050505050565b3360009081526003602052604090205460ff1615156001146102a25760405162461bcd60e51b81526004018080602001828103825260318152602001806105ff6031913960400191505060405180910390fd5b600260015414156102fa576040805162461bcd60e51b815260206004820152601f60248201527f5265656e7472616e637947756172643a207265656e7472616e742063616c6c00604482015290519081900360640190fd5b600260018190555460408051632e1a7d4d60e01b81526004810184905290516001600160a01b0390921691632e1a7d4d9160248082019260009290919082900301818387803b15801561034c57600080fd5b505af1158015610360573d6000803e3d6000fd5b50506040516000925033915083908381818185875af1925050503d80600081146103a6576040519150601f19603f3d011682016040523d82523d6000602084013e6103ab565b606091505b50509050806103eb5760405162461bcd60e51b81526004018080602001828103825260368152602001806106306036913960400191505060405180910390fd5b505060018055565b6103fb6105d4565b6001600160a01b031661040c6104b1565b6001600160a01b031614610467576040805162461bcd60e51b815260206004820181905260248201527f4f776e61626c653a2063616c6c6572206973206e6f7420746865206f776e6572604482015290519081900360640190fd5b600080546040516001600160a01b03909116907f8be0079c531659141344cd1fd0a4f28419497f9722a3daafe3b4186f6b6457e0908390a3600080546001600160a01b0319169055565b6000546001600160a01b031690565b6104c86105d4565b6001600160a01b03166104d96104b1565b6001600160a01b031614610534576040805162461bcd60e51b815260206004820181905260248201527f4f776e61626c653a2063616c6c6572206973206e6f7420746865206f776e6572604482015290519081900360640190fd5b6001600160a01b0381166105795760405162461bcd60e51b81526004018080602001828103825260268152602001806105d96026913960400191505060405180910390fd5b600080546040516001600160a01b03808516939216917f8be0079c531659141344cd1fd0a4f28419497f9722a3daafe3b4186f6b6457e091a3600080546001600160a01b0319166001600160a01b0392909216919091179055565b339056fe4f776e61626c653a206e6577206f776e657220697320746865207a65726f2061646472657373574e617469766552656c617965723a3a6f6e6c7957686974656c697374656443616c6c65723a3a20216f6b43616c6c6572574e617469766552656c617965723a3a6f6e6c7957686974656c697374656443616c6c65723a3a2063616e2774207769746864726177a264697066735822122089f7cabf7d19c7a99b92e6f5d12b870eff7ebbab0de8d5e715563e4a4dd744da64736f6c63430006060033",
    "linkReferences": {}
  },
  "methodIdentifiers": {
    "owner()": "8da5cb5b",
    "renounceOwnership()": "715018a6",
    "setCallerOk(address[],bool)": "2763eaf5",
    "transferOwnership(address)": "f2fde38b",
    "withdraw(uint256)": "2e1a7d4d"
  },
  "id": 28
}